{
  "contractName": "SimpleBank",
  "abi": [
    {
      "inputs": [],
      "stateMutability": "nonpayable",
      "type": "constructor"
    },
    {
      "anonymous": false,
      "inputs": [
        {
          "indexed": false,
          "internalType": "address",
          "name": "accountAddress",
          "type": "address"
        },
        {
          "indexed": false,
          "internalType": "uint256",
          "name": "amount",
          "type": "uint256"
        }
      ],
      "name": "LogDepositMade",
      "type": "event"
    },
    {
      "inputs": [],
      "name": "owner",
      "outputs": [
        {
          "internalType": "address",
          "name": "",
          "type": "address"
        }
      ],
      "stateMutability": "view",
      "type": "function",
      "constant": true
    },
    {
      "inputs": [],
      "name": "deposit",
      "outputs": [
        {
          "internalType": "uint256",
          "name": "",
          "type": "uint256"
        }
      ],
      "stateMutability": "payable",
      "type": "function",
      "payable": true
    },
    {
      "inputs": [
        {
          "internalType": "uint256",
          "name": "withdrawAmount",
          "type": "uint256"
        }
      ],
      "name": "withdraw",
      "outputs": [
        {
          "internalType": "uint256",
          "name": "remainingBal",
          "type": "uint256"
        }
      ],
      "stateMutability": "nonpayable",
      "type": "function"
    },
    {
      "inputs": [],
      "name": "balance",
      "outputs": [
        {
          "internalType": "uint256",
          "name": "",
          "type": "uint256"
        }
      ],
      "stateMutability": "view",
      "type": "function",
      "constant": true
    }
  ],
  "bytecode": "0x608060405234801561001057600080fd5b5033600160006101000a81548173ffffffffffffffffffffffffffffffffffffffff021916908373ffffffffffffffffffffffffffffffffffffffff160217905550610483806100616000396000f3fe60806040526004361061003f5760003560e01c80632e1a7d4d146100445780638da5cb5b14610093578063b69ef8a8146100ea578063d0e30db014610115575b600080fd5b34801561005057600080fd5b5061007d6004803603602081101561006757600080fd5b8101908080359060200190929190505050610133565b6040518082815260200191505060405180910390f35b34801561009f57600080fd5b506100a8610259565b604051808273ffffffffffffffffffffffffffffffffffffffff1673ffffffffffffffffffffffffffffffffffffffff16815260200191505060405180910390f35b3480156100f657600080fd5b506100ff61027f565b6040518082815260200191505060405180910390f35b61011d6102c5565b6040518082815260200191505060405180910390f35b60008060003373ffffffffffffffffffffffffffffffffffffffff1673ffffffffffffffffffffffffffffffffffffffff1681526020019081526020016000205482111561018057600080fd5b816000803373ffffffffffffffffffffffffffffffffffffffff1673ffffffffffffffffffffffffffffffffffffffff168152602001908152602001600020600082825403925050819055503373ffffffffffffffffffffffffffffffffffffffff166108fc839081150290604051600060405180830381858888f19350505050158015610212573d6000803e3d6000fd5b506000803373ffffffffffffffffffffffffffffffffffffffff1673ffffffffffffffffffffffffffffffffffffffff168152602001908152602001600020549050919050565b600160009054906101000a900473ffffffffffffffffffffffffffffffffffffffff1681565b60008060003373ffffffffffffffffffffffffffffffffffffffff1673ffffffffffffffffffffffffffffffffffffffff16815260200190815260200160002054905090565b60008060003373ffffffffffffffffffffffffffffffffffffffff1673ffffffffffffffffffffffffffffffffffffffff16815260200190815260200160002054346000803373ffffffffffffffffffffffffffffffffffffffff1673ffffffffffffffffffffffffffffffffffffffff1681526020019081526020016000205401101561035257600080fd5b346000803373ffffffffffffffffffffffffffffffffffffffff1673ffffffffffffffffffffffffffffffffffffffff168152602001908152602001600020600082825401925050819055507fa8126f7572bb1fdeae5b5aa9ec126438b91f658a07873f009d041ae690f3a1933334604051808373ffffffffffffffffffffffffffffffffffffffff1673ffffffffffffffffffffffffffffffffffffffff1681526020018281526020019250505060405180910390a16000803373ffffffffffffffffffffffffffffffffffffffff1673ffffffffffffffffffffffffffffffffffffffff1681526020019081526020016000205490509056fea26469706673582212201d4bf4bc7ca015689e9abdfe84232cf637a3814af809dc7fb40bb88a2588f12764736f6c63430006060033",
  "immutableReferences": {},
  "source": "pragma solidity ^0.6.6;\n\n// Start with Natspec comment (the three slashes)\n// used for documentation - and as descriptive data for UI elements/actions\n\n/// @title SimpleBank\n/// @author nemild\n\n/* 'contract' has similarities to 'class' in other languages (class variables,\ninheritance, etc.) */\ncontract SimpleBank {\n    // CapWords\n    // Declare state variables outside function, persist through life of contract\n\n    // dictionary that maps addresses to balances\n    // always be careful about overflow attacks with numbers\n    mapping(address => uint256) private balances;\n\n    // \"private\" means that other contracts can't directly query balances\n    // but data is still viewable to other parties on blockchain\n\n    address public owner;\n    // 'public' makes externally readable (not writeable) by users or contracts\n\n    // Events - publicize actions to external listeners\n    event LogDepositMade(address accountAddress, uint256 amount);\n\n    // Constructor, can receive one or many variables here; only one allowed\n    constructor() public {\n        // msg provides details about the message that's sent to the contract\n        // msg.sender is contract caller (address of contract creator)\n        owner = msg.sender;\n    }\n\n    /// @notice Deposit ether into bank\n    /// @return The balance of the user after the deposit is made\n    function deposit() public payable returns (uint256) {\n        // Use 'require' to test user inputs, 'assert' for internal invariants\n        // Here we are making sure that there isn't an overflow issue\n        require((balances[msg.sender] + msg.value) >= balances[msg.sender]);\n\n        balances[msg.sender] += msg.value;\n        // no \"this.\" or \"self.\" required with state variable\n        // all values set to data type's initial value by default\n\n        emit LogDepositMade(msg.sender, msg.value); // fire event\n\n        return balances[msg.sender];\n    }\n\n    /// @notice Withdraw ether from bank\n    /// @dev This does not return any excess ether sent to it\n    /// @param withdrawAmount amount you want to withdraw\n    /// @return remainingBal\n    function withdraw(uint256 withdrawAmount)\n        public\n        returns (uint256 remainingBal)\n    {\n        require(withdrawAmount <= balances[msg.sender]);\n\n        // Note the way we deduct the balance right away, before sending\n        // Every .transfer/.send from this contract can call an external function\n        // This may allow the caller to request an amount greater\n        // than their balance using a recursive call\n        // Aim to commit state before calling external functions, including .transfer/.send\n        balances[msg.sender] -= withdrawAmount;\n\n        // this automatically throws on a failure, which means the updated balance is reverted\n        msg.sender.transfer(withdrawAmount);\n\n        return balances[msg.sender];\n    }\n\n    /// @notice Get balance\n    /// @return The balance of the user\n    // 'view' (ex: constant) prevents function from editing state variables;\n    // allows function to run locally/off blockchain\n    function balance() public view returns (uint256) {\n        return balances[msg.sender];\n    }\n}\n",
  "sourcePath": "/Users/scottpayne/Desktop/DEV/SimpleBank/contracts/SimpleBank.sol",
  "compiler": {
    "name": "solc",
    "version": "0.6.6+commit.6c089d02.Emscripten.clang"
  },
  "schemaVersion": "3.4.8",
  "updatedAt": "2022-08-28T17:21:02.637Z",
  "networkType": "ethereum",
  "devdoc": {
    "author": "nemild",
    "methods": {
      "withdraw(uint256)": {
        "details": "This does not return any excess ether sent to it",
        "params": {
          "withdrawAmount": "amount you want to withdraw"
        },
        "returns": {
          "remainingBal": "remainingBal"
        }
      }
    },
    "title": "SimpleBank"
  },
  "userdoc": {
    "methods": {
      "balance()": {
        "notice": "Get balance"
      },
      "deposit()": {
        "notice": "Deposit ether into bank"
      },
      "withdraw(uint256)": {
        "notice": "Withdraw ether from bank"
      }
    }
  }
}